:020000040800F2
:10000000F8060020350200085B14000835130008CC
:10001000591400082B0400086117000800000000B4
:100020000000000000000000000000005F14000855
:100030002D040008000000005D1400086114000891
:100040004F0200084F0200084F0200084F0200084C
:100050004F0200084F0200082F0400083504000872
:100060003B040008410400084F0200084F0200084A
:100070004F0200084F0200084F0200084F0200081C
:100080004F0200084F0200084F0200080000000065
:10009000000000000000000000000000470400080D
:1000A0004F0200084F0200084F0200084F020008EC
:1000B0004F0200084F0200084F0200084F020008DC
:1000C0004F0200084F0200084F0200084F020008CC
:1000D0004F0200084F0200085517000800000000FA
:1000E0004F0200084F0200084F0200080000000005
:1000F0000000000000000000000000004F020008A7
:10010000000000004F0200084F0200084F020008E4
:1001100000000000000000000000000000000000DF
:100120004F0200084F0200084F0200084F0200086B
:100130004F02000800000000000000000000000066
:100140000000000000000000000000004F02000856
:100150004F0200084F0200084F0200084F0200083B
:100160004F0200084F0200080000000000000000DD
:10017000000000000000000000000000000000007F
:10018000000000004F020008000000000000000016
:100190004F02000800F002F800F03CF80AA090E8D6
:1001A000000C82448344AAF10107DA4501D100F032
:1001B00031F8AFF2090EBAE80F0013F0010F18BFC3
:1001C000FB1A43F00103184704170000241700002E
:1001D000103A24BF78C878C1FAD8520724BF30C873
:1001E00030C144BF04680C60704700000023002445
:1001F00000250026103A28BF78C1FBD8520728BF37
:1002000030C148BF0B6070471FB501F04DFB1FBDEB
:1002100010B510BD00F0CFF81146FFF7F5FF01F063
:10022000B1FA00F0EDF803B4FFF7F2FF03BC00F001
:10023000F5F800000948804709480047FEE7FEE757
:10024000FEE7FEE7FEE7FEE7FEE7FEE7FEE7FEE786
:1002500004480549054A064B70470000E5140008AC
:1002600095010008F8000020F8060020F8020020A0
:10027000F802002053EA020C00F069802DE9F04BEF
:100280004FF00006002B1FBFB3FA83F503FA05F405
:1002900024FA05F65E4012BF1643B2FA82F502FA5E
:1002A00005F4C5F120051EBF22FA05FC44EA0C0442
:1002B000203556EA044C4FEA144418BF641C4FF032
:1002C00000084FF00009904271EB030C39D300296C
:1002D00019BFB1FA81F701FA07F6B0FA80F700FA10
:1002E00007F6C7F120071EBF20FA07FC46EA0C06F6
:1002F0002037B6FBF4FCA7EB0507103F07F01F0BF8
:10030000CBF120060CFA0BFB2CFA06F644BFB346E1
:100310000026202FA4BF5E464FF0000B5BEA060CC0
:1003200008BF4FF0010B19EB0B09ABFB027C48EB4C
:100330000608C01B06FB02CC0BFB03CC71EB0C01C7
:10034000C1E70B46024641464846BDE8F08B13B56F
:100350004FF000004FF00001AFF30080BDE81C40FB
:1003600070474FF0000200B5134694469646203978
:1003700022BFA0E80C50A0E80C50B1F12001BFF45E
:10038000F7AF090728BFA0E80C5048BF0CC05DF8C4
:1003900004EB890028BF40F8042B08BF704748BF12
:1003A00020F8022B11F0804F18BF00F8012B704786
:1003B000704770477047754600F02CF8AE46050050
:1003C0006946534620F00700854618B020B5FFF770
:1003D0003FFFBDE820404FF000064FF000074FF010
:1003E00000084FF0000B21F00701AC46ACE8C00953
:1003F000ACE8C009ACE8C009ACE8C0098D4670475C
:1004000010B50446AFF300802046BDE81040FFF76A
:100410000ABF0000004870479400002001491820DE
:10042000ABBEFEE7260002007047FEE770470120E2
:1004300000F0C0B8022000F0BDB8042000F0BAB847
:10044000082000F0B7B810B54FF4807000F0B2F893
:10045000BDE810404FF4007000F0ACB82DE9F04159
:100460000446876D00F0B0F9064694F83500002583
:10047000022806D08020606584F834500120BDE851
:10048000F0812068016821F016010160206841694F
:1004900021F080014161206C08B9A06C20B1206876
:1004A000016821F0080101602068016821F0010164
:1004B00001600CE000F088F9801B052807D9202096
:1004C0006065032084F8350084F83450D7E720684D
:1004D0000068C007EED194F85C103F208840B860F7
:1004E000012084F8350084F834500020C7E790F8E4
:1004F0003510022903D08021416501207047052174
:1005000080F835100068016821F0010101600020C9
:10051000704700002DE9F04184462448BCF1080FE3
:1005200031D00ADCBCF1010F29D0BCF1020F28D078
:10053000BCF1040F37D1402126E01D4C0026214696
:100540000125D1E902230A27BCF5807F20D0BCF524
:10055000007F28D1002A26D1012B22D00220086159
:10056000CD600021012001F031F901F051F901F0D5
:1005700039F92078BDE8F041303001F07BB9102125
:1005800002E0202100E08021BDE8F04100F00EB93A
:10059000002B08D1012A02D00D618D60E1E78E6049
:1005A00000E0CE600F61BDE8F08100000004024071
:1005B00000000020044910B50A68024202D0086019
:1005C000FFF7A8FF10BD0000143C01402DE9F84FD3
:1005D000DFF8B8A1002201240AF1040B03254FF033
:1005E0000F090BF1040E00BF0B6804FA02F633404A
:1005F000B34273D10F7907F00307012F01D0022F07
:1006000016D187684FEA420805FA08FC27EA0C076A
:10061000D1F80CC00CFA08FC4CEA070CC0F808C072
:100620004768B7430E79C6F3001696403E434660CE
:100630000E79F643B6070DD0C768560005FA06FCDA
:1006400027EA0C07D1F808C00CFA06FC4CEA070CA4
:10065000C0F80CC00E7906F00306022E10D1D608A1
:1006600000EB8608D8F8206057074FEAD76C09FAE4
:100670000CF7BE430F6907FA0CF73743C8F8207030
:1006800006684FEA420C05FA0CF7BE430F7907F0F3
:10069000030707FA0CF7374307604E6816F4403F2C
:1006A0006DD03B4E376847F480473760366822F09C
:1006B000030706F480460096364E07EB060CDCF87E
:1006C000086897073F0F09FA07F826EA0806DFF8D7
:1006D000C880404503D14FF000081EE04FE0DFF82E
:1006E000BC80404502D14FF0010816E0DFF8B08031
:1006F000404502D14FF002080FE0DFF8A8804045E6
:1007000002D14FF0030808E0DFF89C80404502D199
:100710004FF0040801E04FF0070808FA07F848EA2C
:100720000608CCF80888DAF800605746D1F804C00B
:100730009E435FEACC3C00D51E433E60DBF8006080
:100740005F46D1F804C09E435FEA8C3C00D51E434F
:100750003E60DEF800607746D1F804C09E435FEA51
:10076000CC2C00D51E433E60084F0C373E68D1F8B4
:1007700004C09E435FEA8C2C00D51E433E60521C91
:10078000102AFFF431AFBDE8F88F0000003C0140B3
:1007900044380240003001400000024000040240A2
:1007A00000080240000C024000100240426921EAA9
:1007B00002030A4043EA0241816170470AB1816144
:1007C00070470904FBE7000001488068704700009B
:1007D000400000200248816802781144816070471F
:1007E000400000200B4810B5016841F40071016021
:1007F000016841F480610160016841F48071016029
:10080000032000F06FF80F2000F006F800F024F845
:10081000002010BD003C024070B50D4D04464FF461
:100820007A712878B1FBF0F00A490968B1FBF0F061
:1008300000F00CFB48B9102C07D200222146501EB4
:1008400000F030F800206C6070BD012070BD000029
:10085000400000204C0000200A4808B5016841F41F
:1008600080410160006800F4804000900548001F4E
:10087000016841F080510160006800F080500090F4
:1008800008BD000044380240002809DB00F01F02C8
:10089000012191404009800000F1E020C0F80011E2
:1008A00070470000F0B40E4B1B680C46C3F30223E4
:1008B000C3F10705042D00D90425191D072901D20C
:1008C000002300E0DB1E012606FA05F1491E214047
:1008D00099409E40761E16403143F0BC00F041BF67
:1008E0000CED00E0064900F0070208684FF6FF0330
:1008F000184040EA0220034A104308607047000095
:100900000CED00E00000FA052DE9F0470E46050069
:1009100065D0DFF81481D8F80000F7B200F00700C6
:10092000B04207D288F80070D8F8000000F0070045
:10093000B04254D128683D4C810712D5400703D5F9
:10094000206840F4E05020602878000703D5206834
:1009500040F4604020602068A96820F0F00008435F
:1009600020602878C0072DD03049686808390128F0
:1009700012D0022813D0032811D009688907002952
:100980002DDA216821F0030101432160FFF71CFFEC
:10099000814641F2883A0EE009688903EFE7096869
:1009A0008901ECE7FFF710FFA0EB0901514502D9DF
:1009B0000320BDE8F0872068696800F00C00B0EB08
:1009C000810FEFD1D8F80010404601F00701B14285
:1009D00007D90770006800F00700B04201D001207D
:1009E000E7E72878400705D52068E96820F4E0505B
:1009F000084320602878000706D52068296920F47C
:100A0000604040EAC100206000F038F82168084AE0
:100A1000C1F30311515CC8400649086006480068EC
:100A2000FFF7FAFE0020C4E7003C0240083802400D
:100A3000B21800084C00002044000020044805497A
:100A400000680968044AC1F38221515CC8407047BC
:100A50004C00002008380240C2180008044805492C
:100A600000680968044AC1F34231515CC8407047CC
:100A70004C00002008380240C2180008154810B584
:100A8000006810F00C02144813D01449042A0FD047
:100A9000082A0ED10F4C241F2268236802F03F025F
:100AA0005B0207D52068C0F38810A0FB010106E0B7
:100AB000084610BD2168C1F38811A1FB0001002385
:100AC000FFF7D8FB2168C1F30141491C4900B0FB85
:100AD000F1F010BD083802400024F40040787D0198
:100AE0002DE9F84F04006ED02078DFF84C93C00752
:100AF000A9F104054AD009F104000168C1F381019C
:100B0000012908D00068C0F3810002280AD1D9F871
:100B10000000400206D52868800337D560680028A9
:100B2000E1D033E06068B0F5803F10D0B0F5A02F81
:100B3000286810D020F480302860286820F48020B5
:100B400028606068A8B1FFF73FFE06460DE0286800
:100B500040F48030F4E740F480202860F7E700BFDD
:100B6000FFF732FE801B642873D828688003F7D50E
:100B70000CE0FFF729FE064605E000BFFFF724FE64
:100B8000801B6428F0D828688003F7D42078DFF829
:100B9000AC8280074FF0000A3ED5A748001D0168CF
:100BA00011F00C0F08D00068C0F3810002280BD1AF
:100BB000D9F80000400207D42868800716D5E068FD
:100BC000012800D112E033E1E068B8B10120C8F893
:100BD0000000FFF7F9FD064605E000BFFFF7F4FD52
:100BE000801B0228C0D828688007F7D528682169AB
:100BF00020F0F80040EAC10028600DE0C8F800A02D
:100C0000FFF7E2FD064604E0FFF7DEFD801B022849
:100C10001FD828688007F7D42078000722D5864F90
:100C200087486169703771B101210160FFF7CCFD20
:100C3000064604E0FFF7C8FD801B022809D8386883
:100C40008007F7D50EE0C0F800A0FFF7BDFD06460F
:100C500005E082E0FFF7B8FD801B02287DD83868E8
:100C60008007F7D42078400768D5DFF8CCB100279B
:100C70000BF13C0BDBF80000C0000BD4DBF80010DC
:100C800041F08051CBF80010DBF80000012700F0A4
:100C9000805000906B4E3068C00510D4306840F42E
:100CA00080703060FFF790FD009005E0FFF78CFD4D
:100CB0000099401A022850D83068C005F6D55E4E1B
:100CC000A0686C3601280FD00528306810D020F0BD
:100CD00001003060306820F004003060A068B8B1D6
:100CE000FFF772FD00900FE0306840F00100F4E77C
:100CF00040F004003060F7E7FFF766FD0099411A05
:100D000041F28830814266D830688007F4D50EE021
:100D1000FFF75AFD009007E0FFF756FD0099411AD2
:100D200041F28830814256D830688007F4D42FB120
:100D3000DBF8001021F08051CBF80010A069C8B397
:100D40003D49091D0968C1F3810102294AD00228E1
:100D5000504607D0C8F8600000E03CE0FFF734FDE3
:100D600004463BE04746C8F86000FFF72DFD064605
:100D700005E000BFFFF728FD801B02282BD828685C
:100D80008001F7D4D4E907010843A16A2E4A490833
:100D900002EB0141626A41EA8211084394F82C1087
:100DA00040EA0161C9F8001001203866FFF70CFD28
:100DB000044606E03EE000BFFFF706FD001B0228E8
:100DC00009D828688001F7D534E000BFFFF7FCFCA4
:100DD000001B022802D90320BDE8F88F2868800193
:100DE000F4D427E00128F7D0D9F80000E26900F434
:100DF000800191421CD1226A00F03F01914217D13B
:100E000047F6C071626A0140B1EB821F10D1A26A3D
:100E10004FF0FF3300F4403103EB5202B1EB024FCD
:100E200006D194F82C1000F07060B0EB016F01D087
:100E30000120D1E70020CFE70438024000004742FC
:100E4000800E4742007000400000FFFF10B5401EBA
:100E5000B0F1807F01D3012010BD4FF0E02460612C
:100E60000F21601700F07DFC0020A06107202061A9
:100E7000002010BD70477047F8B501680446086847
:100E8000CA684B6910F00F0F4FF0000559D003F0FE
:100E9000010602F49077374365D0C10705D0D1052C
:100EA00003D5216C41F001012164410705D5D90723
:100EB00003D0216C41F002012164810705D5D907D7
:100EC00003D0216C41F004012164010707D502F031
:100ED0002001314303D0216C41F008012164216CD1
:100EE00000293AD0800604D5900602D5204600F0AD
:100EF00030FB20684069216CC0F38010090700D4E2
:100F000060B3204600F0FEFA20684069400621D513
:100F10002068143050E8001F21F0400140E8001222
:100F2000002AF5D1A06BA8B16C490165A06BFFF751
:100F3000DEFA002811D0A06B016D01B0BDE8F040D1
:100F4000084783060FD593060DD52046BDE8F84027
:100F500000F0FFBA2046FFF78EFFF8BD2046FFF7EE
:100F60008AFF2564F8BD266B2023012E79D1C606A1
:100F700077D5D60675D50868486800904869400658
:100F800040D5A16B086840680004000CEAD0A28D2F
:100F90008242E7D9E085C869B0F5807F2DD020680E
:100FA0000C3050E8001F21F4807140E80012002A44
:100FB000F5D12068143050E8001F21F0010140E80D
:100FC0000012002AF5D12068143050E8001F21F0EB
:100FD000400140E80012002AF5D184F83E30256334
:100FE00020680C3050E8001F21F0100140E800128A
:100FF000002AF5D1A06BFFF731FAA08DE18D401AE0
:1010000081B229E0A08DE18D401A81B2E08D0028E7
:10101000A8D00029A6D020680C3050E8002F22F478
:10102000907240E80026002EF5D12068143050E878
:10103000002F22F0010240E80026002EF5D184F8AE
:101040003E30256320680C3050E8002F22F010025B
:1010500040E80023002BF5D12046FFF70BFFF8BD39
:10106000FFE705062BD5150629D594F83D00212864
:10107000F5D1A068B0F5805F01D12069B0B1206AD8
:10108000411C2162216800784860E08C401E000409
:10109000000CE084E3D12068C16821F08001C160C8
:1010A0002068C16841F04001C160D8E7206A00882B
:1010B000C0F308004860206A801C2062E5E7400613
:1010C000CDD55006CBD5CA68204622F04002CA6072
:1010D00084F83D3000F02DF9C1E70000F514000858
:1010E00070B5040004D094F83D00002510B106E06E
:1010F000012070BD84F83C50204600F023F82420E5
:1011000084F83D002068C16821F40051C160204688
:1011100000F080FA2068016921F4904101612068A3
:10112000416921F02A0141612068C16841F4005100
:10113000C1602564202084F83D0084F83E00002032
:1011400070BD000010B586B0044614216846FFF754
:1011500008F917492068884228D1164800210268FA
:1011600042F400320260006800F40030059011483B
:101170001038026842F001020260006800F00100CD
:1011800005900C2000900220CDE90101032003907E
:101190000720049069460848FFF718FA0022114614
:1011A0002620FFF77FFB2620FFF76EFB06B010BD61
:1011B0000044004040380240000002402DE9F84F52
:1011C000044690F83E009A4616460D46202853D114
:1011D000FDB1F6B194F83C0001284DD0012084F80F
:1011E0003C0000272764222084F83E002763FFF795
:1011F000EBFAA6858146E685A0684FF48058404505
:1012000001D1206940B12E465FF0000584F83C70A2
:1012100027E00120BDE8F88F0026F7E74B460022C3
:1012200020212046CDF800A000F058FA08B1032094
:10123000F0E726B1A06840451BD038B108E020682F
:101240004068C0F3080025F8020B07E0206980B170
:101250002068406800F07F0006F8010BE08D401E1A
:10126000E085E08D0028D9D1202084F83E000020C0
:10127000D0E720684068EFE70220CBE77047000026
:101280002DE9F843044690F83D001F4616460D46EA
:1012900020284CD1C5B1BEB194F83C00012846D0FD
:1012A000012084F83C004FF00008C4F84080212061
:1012B00084F83D00FFF788FAA6848146E684A0689A
:1012C000B0F5805F03D004E00120BDE8F883206919
:1012D00028B12E465FF0000584F83C800EE0002621
:1012E000FAE78021204600F0F9F9A0B9AEB116F86E
:1012F000010B21684860E08C401EE084E08C4B4686
:101300004FF0000200970028EBD14FF0400120463B
:1013100000F0E4F930B10320D7E735F8020BC0F351
:101320000800E6E7202084F83D000020CDE70220F9
:10133000CBE77047FEE700002DE9F04387B01421AA
:101340006846FFF70EF840480024016841F00401A8
:101350000160016801F004010591016841F001019B
:101360000160016801F001010591016841F002018D
:1013700001600068354F00F00200059000227F21D7
:101380003846FFF71BFADFF8C8804FF408760022D2
:1013900031464046FFF712FADFF8B8900022F021FC
:1013A0004846FFF70BFA7F2000900125CDE9015454
:1013B000694638460394FFF709F90096CDE90154D0
:1013C000694640460394FFF701F940F20F30009060
:1013D000F00201900220029069464846FFF7F6F8B5
:1013E000F0200090CDE90154694648460394FFF788
:1013F000EDF8002211460620FFF754FA0620FFF709
:1014000043FA002211460720FFF74CFA0720FFF7A6
:101410003BFA002211460820FFF744FA0820FFF7A4
:1014200033FA002211460920FFF73CFA0920FFF7A2
:101430002BFA002211461720FFF734FA1720FFF786
:1014400023FA07B0BDE8F0833038024000080240BC
:101450000000024000040240FEE7FEE770477047CC
:10146000FFF7B8B910B592B030216846FEF779FFA2
:1014700014210CA8FEF775FF18480024016841F0FC
:1014800080510160006800F080501190144801689C
:1014900021F4404141F4004101600068069400F4E9
:1014A00040401190022000900120039010200490F1
:1014B0006846FFF715FB08B172B6FEE70F20CDE9CD
:1014C0000C040E940F9400210CA81094FFF71CFA42
:1014D000002801D072B6FEE712B010BD40380240BD
:1014E000007000400248016841F4700101607047DB
:1014F00088ED00E010B5806B0021C185C184FFF745
:10150000BAFC10BD01680C3151E8002F22F4907232
:1015100041E80023002BF5D10168143151E8002F78
:1015200022F0010241E80023002BF5D1016B0129D3
:1015300009D101680C3151E8002F22F0100241E876
:101540000023002BF5D1202180F83E1000210163FB
:10155000704708B590F83E10222901D0022008BD3E
:1015600082684FF480539A4201D1016921B1816AA6
:101570009A421BD04AB10AE00268816A5268C2F3FB
:1015800008020A80816A891C08E0026972B1026857
:10159000526802F07F020A70816A491C8162C18D23
:1015A000491E0904090CC18503D019E0026852687C
:1015B000F1E70168CA6822F02002CA600168CA68BF
:1015C00022F48072CA6001684A6922F001024A610D
:1015D000202180F83E10016B012903D0FFF74EFE59
:1015E000002008BD0021016301680C3151E8002F83
:1015F00022F0100241E80023002BF5D101680A68AF
:10160000D20602D50A6849680091818DFFF732FC45
:10161000E6E7000070B5044600680169E26821F45D
:101620004051114301612169A068E2690843616981
:10163000114308432168CA6849F20C639A43024384
:10164000CA6020684169A26921F440711143416177
:1016500020492068884202D01F49884202D1FFF702
:10166000FDF901E0FFF7EAF9E169B1F5004F04D0B7
:1016700040F283602168886070BD616800234A1869
:101680001921A0FB01015B41FEF7F4FD0146642234
:10169000B0FBF2F00501B1FBF2F06FF01803584314
:1016A00001EB8000322303EBC000B0FBF2F000F04E
:1016B000F80005EB4005B1FBF2F06FF0180670433F
:1016C00001EB800003EBC000B0FBF2F000F007007C
:1016D0002844CFE700100140001401402DE9F041FB
:1016E000984617460E460446069D27E0681C25D0FE
:1016F0002DB1FFF769F8A0EB0800A8421ED92068B9
:101700000C3050E8001F21F4D07140E80012002A8C
:10171000F5D12068143050E8001F21F0010140E8A5
:101720000012002AF5D1202084F83D0084F83E0004
:10173000002084F83C000320BDE8F08120680068A8
:1017400036EA000004D00020B842CFD00020F3E7F2
:101750000120F9E70148FFF78FBB0000500000208F
:10176000FEE70907090E002804DB00F1E02080F8FD
:101770000014704700F00F0000F1E02080F8141D05
:1017800070470000FFF72EF8FFF76CFEFFF7D4FD5F
:101790000C480B490C2201604FF4165141600021A6
:1017A0008160C160C0E904128161C161FFF798FCEA
:1017B00008B172B6FEE7044C206900F03FF8FBE781
:1017C000004400405000002000000020044A13693B
:1017D000D21C137000B180205070917070470000CF
:1017E0000000002010B500224FF400710548FEF7FC
:1017F000E5FFBDE810404FF0FF33032202490348E4
:10180000FFF7DCBC00000240000000205000002078
:1018100010B5012251020648FEF7D0FFBDE8104086
:101820004FF0FF33032203490348FFF729BD0000AF
:101830000000024003000020500000202DE9F0418C
:1018400000240A4FDFF828800546012657F82500B6
:10185000E04000F0010206FA04F081B24046FEF7D3
:10186000ADFF641C072CF1DBBDE8F0811400002003
:101870000008024070B50446012251020848FEF7F4
:101880009DFF4FF0FF3506E02B460122214605481B
:10189000FFF7F6FC641C20780028F5D170BD00002D
:1018A00000000240500000204FF04070E1EE100AAE
:1018B000704700000000000000000102030406075A
:1018C000080900000000010203040000EC180008F1
:1018D0000000002050000000D00100083C19000862
:1018E00050000020A8060000EC01000800000000E5
:1018F0000000000000000000000000000A000000DE
:101900003F000000060000005B0000004F000000E8
:10191000660000006D0000007D0000000700000070
:101920007F0000006F000000540000000100000074
:0C19300010000000000000000024F40083
:040000050800019559
:00000001FF
