:020000040800F2
:1000000060060020190200082102000823020008EF
:10001000250200082702000829020008000000004D
:100020000000000000000000000000002B0200089B
:100030002D020008000000002F0200083102000815
:1000400033020008330200083302000833020008BC
:1000500033020008330200083302000833020008AC
:10006000330200083302000833020008330200089C
:10007000330200083302000833020008330200088C
:1000800033020008330200083302000800000000B9
:100090000000000000000000000000003302000823
:1000A000330200083302000833020008330200085C
:1000B000330200083302000833020008330200084C
:1000C000330200083302000833020008330200083C
:1000D0003302000833020008330200080000000069
:1000E0003302000833020008330200080000000059
:1000F00000000000000000000000000033020008C3
:100100000000000033020008330200083302000838
:1001100000000000000000000000000000000000DF
:1001200033020008330200083302000833020008DB
:100130003302000800000000000000000000000082
:100140000000000000000000000000003302000872
:1001500033020008330200083302000833020008AB
:100160003302000833020008000000000000000015
:10017000000000000000000000000000000000007F
:100180000000000033020008000000000000000032
:100190003302000800F002F800F02EF80AA090E800
:1001A000000C82448344AAF10107DA4501D100F032
:1001B00023F8AFF2090EBAE80F0013F0010F18BFD1
:1001C000FB1A43F00103184728030000380300001E
:1001D0000023002400250026103A28BF78C1FBD850
:1001E000520728BF30C148BF0B6070471FB500F0F1
:1001F00071F91FBD10B510BD00F031F81146FFF7C1
:10020000F5FF00F021F900F04FF803B4FFF7F2FF1B
:1002100003BC00F057F80000094880470948004730
:10022000FEE7FEE7FEE7FEE7FEE7FEE7FEE7FEE7A6
:10023000FEE7FEE704480549054A064B7047000003
:1002400035030008950100086000002060060020CA
:1002500060020020600200207047704770477546BA
:1002600000F02CF8AE4605006946534620F0070022
:10027000854618B020B5FFF7DDFFBDE820404FF000
:1002800000064FF000074FF000084FF0000BAC469F
:10029000ACE8C009ACE8C009ACE8C009ACE8C009EA
:1002A00021F007018D46704710B50446AFF300807A
:1002B0002046BDE81040FFF7A8BF00000048704787
:1002C0000000002001491820ABBEFEE72600020016
:1002D0007047000043F63000C4F20200016841F0AC
:1002E000010101600020C4F20200016821F44021F4
:1002F0000160016841F480210160416921F40071CD
:100300004161704743F63000C4F20200016841F0D9
:100310000201016040F20040C4F20200016821F0D5
:10032000FF010160016841F0550101604169002150
:10033000416170474EF68850CEF2000001684FF0E0
:10034000000C41F47001016043F60001C4F20201A7
:100350000A6842F001020A60C1F808C00B684FF653
:10036000FF72CFF6F6621A400A6043F21002C2F240
:1003700000424A600A6822F480220A60C1F80CC078
:100380004FF0006140F8801C7047000043F63000D9
:10039000C4F20200016841F001010160016941F409
:1003A000003101610020C4F20200816841F0400187
:1003B0008160816841F080018160016821F0F00175
:1003C0000160016841F0A0010160016A21F47F41F0
:1003D0000162016A41F4EE41016244F20C40C4F250
:1003E0000000016841F40051016040F2836140F86F
:1003F000041C0C210160016841F400510160704748
:10040000B0B51425C4F20205286820F400702860F5
:1004100000F02AF8012807D100F026F8044600F081
:1004200023F8802C01D150B1B0BD002818BFB0BD59
:100430000020C5F800040120C5F80004B0BD00F09C
:1004400025F800BFFEE70000FFF7A0FFFFF75AFF07
:10045000FFF740FF40F21440C4F2020003210160A4
:10046000FFF7CEFFFCE700001421C4F202010A6886
:1004700044F20040C4F2000022F400720A6000BF9F
:1004800001688906FCD54068C0B2704710B51424D5
:10049000C4F20204206840F4007020600A2000F0DA
:1004A0000FF80C2000F00CF8D4F8000400F00F0056
:1004B00000F006F8206820F40070206010BD0000F5
:1004C00044F20041C4F20001486000BF08684006E1
:1004D000FCD57047F1EE100A4FF6FF71C0F2C03143
:1004E00020EA010040F04070E1EE100A7047000081
:1004F000000500080000002060060000D001000890
:040000050800019559
:00000001FF
