:020000040800F2
:1000000060060020190200082102000823020008EF
:10001000250200082702000829020008000000004D
:100020000000000000000000000000002B0200089B
:100030002D020008000000002F0200083102000815
:1000400033020008330200083302000833020008BC
:1000500033020008330200083302000833020008AC
:10006000330200083302000833020008330200089C
:10007000330200083302000833020008330200088C
:1000800033020008330200083302000800000000B9
:100090000000000000000000000000003302000823
:1000A000330200083302000833020008330200085C
:1000B000330200083302000833020008330200084C
:1000C000330200083302000833020008330200083C
:1000D0003302000833020008330200080000000069
:1000E0003302000833020008330200080000000059
:1000F00000000000000000000000000033020008C3
:100100000000000033020008330200083302000838
:1001100000000000000000000000000000000000DF
:1001200033020008330200083302000833020008DB
:100130003302000800000000000000000000000082
:100140000000000000000000000000003302000872
:1001500033020008330200083302000833020008AB
:100160003302000833020008000000000000000015
:10017000000000000000000000000000000000007F
:100180000000000033020008000000000000000032
:100190003302000800F002F800F02EF80AA090E800
:1001A000000C82448344AAF10107DA4501D100F032
:1001B00023F8AFF2090EBAE80F0013F0010F18BFD1
:1001C000FB1A43F001031847B0020000C002000010
:1001D0000023002400250026103A28BF78C1FBD850
:1001E000520728BF30C148BF0B6070471FB500F0F1
:1001F00035F91FBD10B510BD00F031F81146FFF7FD
:10020000F5FF00F0F1F800F04FF803B4FFF7F2FF4C
:1002100003BC00F057F80000094880470948004730
:10022000FEE7FEE7FEE7FEE7FEE7FEE7FEE7FEE7A6
:10023000FEE7FEE704480549054A064B7047000003
:1002400001030008950100086000002060060020FE
:1002500060020020600200207047704770477546BA
:1002600000F02CF8AE4605006946534620F0070022
:10027000854618B020B5FFF7DDFFBDE820404FF000
:1002800000064FF000074FF000084FF0000BAC469F
:10029000ACE8C009ACE8C009ACE8C009ACE8C009EA
:1002A00021F007018D46704710B50446AFF300807A
:1002B0002046BDE81040FFF7A8BF00000048704787
:1002C0000000002001491820ABBEFEE72600020016
:1002D0007047000043F63000C4F20200016841F0AC
:1002E0000201016040F20040C4F20200016821F006
:1002F0000F010160016841F00101016070470000D9
:100300004EF68850CEF2000001684FF0000C41F428
:100310007001016043F60001C4F202010A6842F074
:1003200001020A60C1F808C00B684FF6FF72CFF6F1
:10033000F6621A400A6043F21002C2F200424A60BA
:100340000A6822F480220A60C1F80CC04FF00061F4
:1003500040F8801C7047000081B000210091009996
:1003600046F2A8125043814206DA00BF00990131DB
:10037000009100998142F9DB01B0704743F63000EB
:10038000C4F20200016841F001010160016941F419
:10039000003101610020C4F20200816841F0400197
:1003A0008160816841F080018160016A21F47F41B0
:1003B0000162016A41F4EE410162016821F0F0013D
:1003C0000160016841F0A001016044F20C40C4F2F8
:1003D000000040F2836140F8041C082101600168BC
:1003E00041F400510160704740F21444C4F2020429
:1003F000FFF7C4FFFFF76EFF0020206001202060A0
:1004000005A000F011F800BF206880F00100206016
:100410000A20FFF7A1FFF7E768656C6C6F2062693F
:10042000746368657300000010B501460078002809
:1004300008BF10BD4C1E00BF00F006F8A0780134C4
:100440000028F9D110BD000044F20041C4F20001BF
:10045000486000BF08684006FCD57047F1EE100AFE
:100460004FF6FF71C0F2C03120EA010040F0407049
:10047000E1EE100A70470000880400080000002028
:0804800060060000D001000835
:040000050800019559
:00000001FF
