:020000040800F2
:1000000070060020350200083D0200083F0200088B
:1000100041020008430200084502000800000000F9
:10002000000000000000000000000000470200087F
:1000300049020008000000004B0200084D020008C1
:100040004F0200084F0200084F0200084F0200084C
:100050004F0200084F020008F102000841030008A7
:1000600091030008E10300084F0200084F02000856
:100070004F0200084F0200084F0200084F0200081C
:100080004F0200084F0200084F0200080000000065
:100090000000000000000000000000004F02000807
:1000A0004F0200084F0200084F0200084F020008EC
:1000B0004F0200084F0200084F0200084F020008DC
:1000C0004F0200084F0200084F0200084F020008CC
:1000D0004F0200084F0200084F0200080000000015
:1000E0004F0200084F0200084F0200080000000005
:1000F0000000000000000000000000004F020008A7
:10010000000000004F0200084F0200084F020008E4
:1001100000000000000000000000000000000000DF
:100120004F0200084F0200084F0200084F0200086B
:100130004F02000800000000000000000000000066
:100140000000000000000000000000004F02000856
:100150004F0200084F0200084F0200084F0200083B
:100160004F0200084F0200080000000000000000DD
:10017000000000000000000000000000000000007F
:10018000000000004F020008000000000000000016
:100190004F02000800F002F800F03CF80AA090E8D6
:1001A000000C82448344AAF10107DA4501D100F032
:1001B00031F8AFF2090EBAE80F0013F0010F18BFC3
:1001C000FB1A43F001031847DC050000FC050000A2
:1001D000103A24BF78C878C1FAD8520724BF30C873
:1001E00030C144BF04680C60704700000023002445
:1001F00000250026103A28BF78C1FBD8520728BF37
:1002000030C148BF0B6070471FB500F0BDFA1FBD7D
:1002100010B510BD00F031F81146FFF7F5FF00F002
:1002200061FA00F04FF803B4FFF7F2FF03BC00F0EF
:1002300057F800000948804709480047FEE7FEE7F5
:10024000FEE7FEE7FEE7FEE7FEE7FEE7FEE7FEE786
:1002500004480549054A064B704700003905000867
:100260009501000870000020700600207002002038
:1002700070020020704770477047754600F02CF8F8
:10028000AE4605006946534620F00700854618B083
:1002900020B5FFF7DDFFBDE820404FF000064FF02E
:1002A00000074FF000084FF0000BAC46ACE8C00967
:1002B000ACE8C009ACE8C009ACE8C00921F007010E
:1002C0008D46704710B50446AFF300802046BDE868
:1002D0001040FFF7A8BF000000487047080000204A
:1002E00001491820ABBEFEE726000200704700005F
:1002F00080B543F61440C4F20100016841F00101E9
:100300000160062000F044F940F26800C2F20000EB
:100310000068002818BF80BD40F21441C4F20201F9
:10032000EFF31080EFF3108272B651F8042CD2076D
:1003300003D00A6882F010020A6080F3108880BD42
:1003400080B543F61440C4F20100016841F0010198
:100350000160062000F01CF940F26800C2F20000C3
:100360000068002818BF80BD40F21441C4F20201A9
:10037000EFF31080EFF3108272B651F8042C92075D
:1003800003D50A6882F020020A6080F3108880BDDD
:1003900080B543F61440C4F20100016841F0010148
:1003A0000160062000F0F4F840F26800C2F200009C
:1003B0000068002818BF80BD40F21441C4F2020159
:1003C000EFF31080EFF3108272B651F8042C52074D
:1003D00003D50A6882F040020A6080F3108880BD6D
:1003E00080B543F61440C4F20100016841F00101F8
:1003F0000160062000F0CCF840F26800C2F2000074
:100400000068002818BF80BD40F21441C4F2020108
:10041000EFF31080EFF3108272B651F8042C12073C
:1004200003D50A6882F080020A6080F3108880BDDC
:1004300043F63000C4F20200016841F0010101609E
:100440000020C4F20200016821F44021016001682B
:1004500041F480210160416921F4007141617047DC
:1004600080B543F63000C4F2020001684FF6FF7316
:1004700041F00201016040F20041C4F202010A6849
:100480009A430A600A6842F4AA420A604A6902F082
:100490000F024A61CA6822F0FF02CA60CA6862F0AD
:1004A0005502CA60416941F48041416143F6080048
:1004B000C4F20100016841F001010160016841F0EE
:1004C00010010160016841F480710160016841F42C
:1004D00080510160D0F8F81341F00F01C0F8F81313
:1004E000D0F8001441F00F01C0F80014062062B6E5
:1004F00000F06EF8062000F04BF8062000F058F8E7
:10050000072000F065F8072000F042F8072000F00F
:100510004FF8082000F05CF8082000F039F80820B7
:1005200000F046F8092000F053F8092000F030F8F8
:10053000092000F03DF880BD4EF68850CEF2000054
:1005400001684FF0000C41F47001016043F60001B6
:10055000C4F202010A6842F001020A60C1F808C050
:100560000B684FF6FF72CFF6F6621A400A6043F24C
:100570001002C2F200424A600A6822F480220A6035
:10058000C1F80CC04FF0006140F8801C70470000BB
:10059000002848BF704700F01F01012202FA01F154
:1005A0004EF280224009CEF2000242F8201070473D
:1005B000002848BF704700F01F01012202FA01F134
:1005C0004EF200124009CEF2000242F820107047AD
:1005D0004EF6145200F00F01CEF20002114400F169
:1005E0006042B0F1FF3F4FF00000C8BF02F5644128
:1005F0000870704743F63000C4F20200016841F011
:1006000001010160016941F4003101610020C4F27F
:100610000200816841F040018160816841F0800101
:100620008160016821F0F0010160016841F0A001E2
:100630000160016A21F47F410162016A41F4EE41E7
:10064000016244F20C40C4F20000016841F4005120
:10065000016040F2836140F8041C0C2101600168D4
:1006600041F400510160704770B51425C4F20205D1
:10067000286820F40070286000F044F840F200067A
:100680000324C2F2000600BF3178884208BF013C53
:1006900000F038F8002CF7DC012811D140F2680690
:1006A000C2F200060120306000F02CF880280CD146
:1006B00000F028F8002818BF70BD00F035F870BDB4
:1006C00000F020F800F01EF803E0044600F01AF8ED
:1006D00004B170BDFF2807BF002030600001C5F8DD
:1006E000000470BDFFF786FFFFF7BAFEFFF7A0FE1C
:1006F00040F21440C4F2020030210160FFF7B4FF61
:10070000FCE700001421C4F202010A6844F2004030
:10071000C4F2000022F400720A6000BF016889067A
:10072000FCD54068C0B2704770B51424C4F202040E
:100730002068032640F40070206040F20000C2F2FE
:100740000000451E15F8010F00F014F8013EF9D124
:100750000A2000F00FF80C2000F00CF8D4F8000488
:10076000C0F3031000F006F8206820F40070206049
:1007700070BD000044F20041C4F20001486000BFB7
:1007800008684006FCD57047F1EE100A4FF6FF717D
:10079000C0F2C03120EA010040F04070E1EE100AE2
:1007A00070470000C8070008000000200800000093
:1007B000D0010008D00700080800002068060000EB
:1007C000EC01000800000000FCFCFC000000000040
:040000050800019559
:00000001FF
