:020000040800F2
:1000000068060020350200083D0200083F02000893
:1000100041020008430200084502000800000000F9
:10002000000000000000000000000000470200087F
:1000300049020008000000004B0200084D020008C1
:100040004F0200084F0200084F0200084F0200084C
:100050004F0200084F0200084F0200084F0200083C
:100060004F0200084F0200084F0200084F0200082C
:100070004F0200084F0200084F0200084F0200081C
:100080004F0200084F0200084F0200080000000065
:100090000000000000000000000000004F02000807
:1000A0004F0200084F0200084F0200084F020008EC
:1000B0004F0200084F0200084F0200084F020008DC
:1000C0004F0200084F0200084F0200084F020008CC
:1000D0004F0200084F0200084F0200080000000015
:1000E0004F0200084F0200084F0200080000000005
:1000F0000000000000000000000000004F020008A7
:10010000000000004F0200084F0200084F020008E4
:1001100000000000000000000000000000000000DF
:100120004F0200084F0200084F0200084F0200086B
:100130004F02000800000000000000000000000066
:100140000000000000000000000000004F02000856
:100150004F0200084F0200084F0200084F0200083B
:100160004F0200084F0200080000000000000000DD
:10017000000000000000000000000000000000007F
:10018000000000004F020008000000000000000016
:100190004F02000800F002F800F03CF80AA090E8D6
:1001A000000C82448344AAF10107DA4501D100F032
:1001B00031F8AFF2090EBAE80F0013F0010F18BFC3
:1001C000FB1A43F0010318476C0300008C03000086
:1001D000103A24BF78C878C1FAD8520724BF30C873
:1001E00030C144BF04680C60704700000023002445
:1001F00000250026103A28BF78C1FBD8520728BF37
:1002000030C148BF0B6070471FB500F085F91FBDB6
:1002100010B510BD00F031F81146FFF7F5FF00F002
:1002200029F900F04FF803B4FFF7F2FF03BC00F028
:1002300057F800000948804709480047FEE7FEE7F5
:10024000FEE7FEE7FEE7FEE7FEE7FEE7FEE7FEE786
:1002500004480549054A064B704700005103000851
:100260009501000868000020680600206802002050
:1002700068020020704770477047754600F02CF800
:10028000AE4605006946534620F00700854618B083
:1002900020B5FFF7DDFFBDE820404FF000064FF02E
:1002A00000074FF000084FF0000BAC46ACE8C00967
:1002B000ACE8C009ACE8C009ACE8C00921F007010E
:1002C0008D46704710B50446AFF300802046BDE868
:1002D0001040FFF7A8BF000000487047080000204A
:1002E00001491820ABBEFEE726000200704700005F
:1002F00043F63000C4F20200016841F001010160E0
:100300000020C4F20200016821F44021016001686C
:1003100041F480210160416921F40071416170471D
:1003200043F63000C4F20200016841F002010160AE
:1003300040F20040C4F20200016821F0FF010160B8
:10034000016841F055010160416900214161704738
:100350004EF68850CEF2000001684FF0000C41F4D8
:100360007001016043F60001C4F202010A6842F024
:1003700001020A60C1F808C00B684FF6FF72CFF6A1
:10038000F6621A400A6043F21002C2F200424A606A
:100390000A6822F480220A60C1F80CC04FF00061A4
:1003A00040F8801C7047000043F63000C4F20200A1
:1003B000016841F001010160016941F4003101610E
:1003C0000020C4F20200816841F040018160816830
:1003D00041F080018160016821F0F0010160016855
:1003E00041F0A0010160016A21F47F410162016ACC
:1003F00041F4EE41016244F20C40C4F20000016895
:1004000041F40051016040F2836140F8041C0C216A
:100410000160016841F400510160704770B5142417
:10042000C4F20204206820F40070206000F032F86A
:1004300040F200060325C2F2000600BF3178884270
:1004400008BF013D00F026F8002DF7DC012810D18F
:1004500000F020F848B180280BD100F01BF80028EC
:1004600018BF70BD00F028F870BD00F013F8C4F894
:10047000000470BDFFF798FFFFF752FFFFF738FF4A
:1004800040F21440C4F2020003210160FFF7C6FFEE
:10049000FCE700001421C4F202010A6844F20040A3
:1004A000C4F2000022F400720A6000BF01688906ED
:1004B000FCD54068C0B2704770B51424C4F2020481
:1004C0002068032640F40070206040F20000C2F271
:1004D0000000451E15F8010F00F014F8013EF9D197
:1004E0000A2000F00FF80C2000F00CF8D4F80004FB
:1004F00000F00F0000F006F8206820F40070206083
:1005000070BD000044F20041C4F20001486000BF29
:1005100008684006FCD57047F1EE100A4FF6FF71EF
:10052000C0F2C03120EA010040F04070E1EE100A54
:100530007047000058050008000000200800000077
:10054000D0010008600500080800002060060000D7
:10055000EC01000800000000FCFCFC0000000000B2
:040000050800019559
:00000001FF
